:020000040800F2
:100000000028002085140008151400081B1400089F
:1000100021140008271400082D1400080000000017
:100020000000000000000000000000003314000881
:100030003F140008000000004B140008571400088B
:10004000CD140008CD140008CD140008CD1400080C
:10005000CD140008CD140008CD140008CD140008FC
:10006000CD140008CD140008CD140008CD140008EC
:10007000CD140008CD140008CD140008CD140008DC
:10008000CD140008CD140008CD140008CD140008CC
:10009000CD140008CD140008CD140008CD140008BC
:1000A000CD140008CD140008CD140008CD140008AC
:1000B00065140008CD14000800000000CD140008ED
:1000C000CD1400080000000000000000CD1400085E
:1000D00000000000CD140008CD140008000000004E
:1000E000CD140008CD140008CD1400080000000055
:1000F0000000000000000000000000000000000000
:0C01000000000000000000005FF808F1A3
:10010C0010B5054C237833B9044B13B10448AFF345
:10011C0000800123237010BD1C0000200000000093
:10012C00FC2A000808B5034B1BB103490348AFF385
:10013C00008008BD0000000020000020FC2A000800
:10014C0080B500AF934B1B68042B00F2CD8201A24B
:10015C0052F823F075010008EB0100083302000887
:10016C00E503000853050008002000F0CDFC034611
:10017C00002B02D0884B01221A60002000F0C4FC36
:10018C000346002B40F0B282834B1B68002B00F01F
:10019C00AD82804B01221A600021642001F09EF890
:1001AC000121642001F09AF87C4B02221A607C4BEE
:1001BC0000221A607B4B1B687B4A13607B4B1B68CD
:1001CC007B4A13607B4B1B687B4A1360764B1B6826
:1001DC007A4A1360784B1B68794A136086E200F008
:1001EC0091FA00F043FB002000F08EFC0346002B3C
:1001FC0002D0694B01221A60002000F085FC0346F6
:10020C00002B40F07582644B1B68002B00F0708251
:10021C00604B02221A600321322001F05FF85E4B22
:10022C0000221A6064E2674BDB68012B0CD10321BE
:10023C00322001F053F84021634801F05CFC4FF48C
:10024C000071614801F057FC564B1B6801211846A0
:10025C0000F080FF0221022000F07CFF012000F062
:10026C0053FC0346002B02D0584B01221A6001208C
:10027C0000F04AFC0346002B0BD1544B1B68002B9F
:10028C0007D0484B1B680133464A13604F4B002282
:10029C001A60012000F052FC0346002B17D04C4B87
:1002AC001B68002B06D00421322001F017F8484BB4
:1002BC0000221A60434B1B69012B08D10421322008
:1002CC0001F00CF8374B1B680133364A13600220DF
:1002DC0000F01AFC0346002B02D03E4B01221A60A0
:1002EC00022000F011FC0346002B28D1394B1B686F
:1002FC00002B24D0274B01221A600021642000F02F
:10030C00EDFF0121642000F0E9FF274B1B68254A13
:10031C001360274B1B68254A1360274B1B68254A23
:10032C00136001224021284801F0CDFB01224FF43B
:10033C000071254801F0C7FB264B00221A600020F3
:10034C0000F0E2FB0346002B02D0134B01221A6093
:10035C00002000F0D9FB0346002B40F0CB810E4B64
:10036C001B68002B00F0C6810A4B03221A60032184
:10037C00322000F0B3FF01224021134801F0A3FB0F
:10038C0001224FF40071104801F09DFB024B00223A
:10039C001A60AFE1480000203C00002070000020F3
:1003AC008C000020000000206400002008000020C9
:1003BC006C00002004000020680000208800002051
:1003CC0078000020E80000200008014040000020D8
:1003DC000C00002044000020B64BDB68012B0CD134
:1003EC000321322000F07AFF2021B34801F083FB77
:1003FC004FF48071B04801F07EFBB04B1B680121BB
:10040C00184600F0A7FE0221032000F0A3FE0120F5
:10041C0000F07AFB0346002B02D0A94B01221A6094
:10042C00012000F071FB0346002B0BD1A44B1B6881
:10043C00002B07D0A14B1B680133A04A1360A04BC3
:10044C0000221A60012000F079FB0346002B17D024
:10045C009C4B1B68002B06D00421322000F03EFF81
:10046C00984B00221A60934B1B69012B08D1042175
:10047C00322000F033FF914B1B6801338F4A13601D
:10048C00022000F041FB0346002B02D08E4B0122D0
:10049C001A60022000F038FB0346002B28D18A4B4F
:1004AC001B68002B24D0894B01221A600021642088
:1004BC0000F014FF0121642000F010FF844B1B6836
:1004CC00844A1360844B1B687C4A1360834B1B6803
:1004DC00834A136001222021774801F0F4FA0122AB
:1004EC004FF48071744801F0EEFA774B00221A60D9
:1004FC00002000F009FB0346002B02D0794B0122AF
:10050C001A60002000F000FB0346002B40F0F48042
:10051C00744B1B68002B00F0EF806C4B04221A60AC
:10052C000321322000F0DAFE01222021624801F082
:10053C00CAFA01224FF480715F4801F0C4FA694B8A
:10054C0000221A60D8E05B4BDB68012B0BD1032136
:10055C00322000F0C3FE1021574801F0CCFA802164
:10056C00554801F0C8FA5E4B1B680121184600F093
:10057C00F1FD0221042000F0EDFD012000F0C4FA91
:10058C000346002B02D04E4B01221A60012000F0D2
:10059C00BBFA0346002B0BD1494B1B68002B07D031
:1005AC004F4B1B6801334E4A1360454B00221A60B7
:1005BC00012000F0C3FA0346002B17D0414B1B68F7
:1005CC00002B06D00421322000F088FE3D4B002287
:1005DC001A60384B1B69012B08D10421322000F022
:1005EC007DFE3F4B1B6801333D4A1360022000F037
:1005FC008BFA0346002B02D0334B01221A600220E7
:10060C0000F082FA0346002B27D12F4B1B68002BDE
:10061C0023D02E4B01221A600021642000F05EFED4
:10062C000121642000F05AFE294B1B68294A1360F3
:10063C00294B1B68214A1360284B1B68284A1360FE
:10064C00012210211C4801F03EFA012280211A4897
:10065C0001F039FA1C4B00221A60002000F054FA09
:10066C000346002B02D01F4B01221A60002000F021
:10067C004BFA0346002B41D11A4B1B68002B3DD083
:10068C00124B01221A600021642000F027FE012188
:10069C00642000F023FE01221021074801F013FA18
:1006AC0001228021044801F00EFA0E4B00221A6040
:1006BC0024E000BFE80000200008014008000020F2
:1006CC00400000200C0000204400002048000020C6
:1006DC0064000020000000206C0000206800002056
:1006EC00040000203C00002000BF08E000BF06E032
:1006FC0000BF04E000BF02E000BF00E000BF00BF8D
:10070C0080BD00BF80B500AF4F4B1B68022B07D0DC
:10071C00022B00F38F80002B30D0012B5CD089E0B2
:10072C0000224021494801F0CEF9012220214748FE
:10073C0001F0C9F901221021444801F0C4F9444BDD
:10074C001B680121184600F005FD424B1B68012B6C
:10075C0072D10021642000F0C1FD3D4B1B68013BB0
:10076C003B4A13603A4B1B68002B65DA364B002270
:10077C001A60394B1B68394A13605DE00122402135
:10078C00324801F0A0F901222021304801F09BF9F8
:10079C00002210212D4801F096F9304B1B680121E5
:1007AC00184600F0D7FC2B4B1B68012B46D10021BF
:1007BC00642000F093FD294B1B68013B274A136012
:1007CC00264B1B68002B39DA1F4B01221A60244B75
:1007DC001B68244A136031E0012240211B4801F0C0
:1007EC0072F900222021194801F06DF90122102123
:1007FC00164801F068F91B4B1B680121184600F0E4
:10080C00A9FC144B1B68012B1AD10021642000F0A9
:10081C0065FD144B1B68013B124A1360114B1B689E
:10082C00002B0DDA084B02221A600F4B1B68084A8A
:10083C00136005E000BF04E000BF02E000BF00E071
:10084C0000BF00BF80BD00BF700000200008014049
:10085C0088000020E8000020040000207400002024
:10086C0008000020840000200000002080B500AFAC
:10087C00524B1B68022B07D0022B00F39580002BE8
:10088C0032D0012B60D08FE000224FF400714C4825
:10089C0001F019F901224FF48071494801F013F964
:1008AC0001228021464801F00EF9464B1B680221BB
:1008BC00184600F04FFC444B5B68012B76D10121AC
:1008CC00642000F00BFD3F4B1B68013B3D4A13605D
:1008DC003C4B1B68002B69DA384B00221A603B4BEF
:1008EC001B683B4A136061E001224FF400713448ED
:1008FC0001F0E9F801224FF48071314801F0E3F87E
:10090C00002280212E4801F0DEF8314B1B680221B9
:10091C00184600F01FFC2C4B5B68012B48D10121C1
:10092C00642000F0DBFC2A4B1B68013B284A136057
:10093C00274B1B68002B3BDA204B01221A60254BFE
:10094C001B68254A136033E001224FF400711C48E8
:10095C0001F0B9F800224FF48071194801F0B3F896
:10096C0001228021164801F0AEF81B4B1B680221B6
:10097C00184600F0EFFB144B5B68012B1AD10121D8
:10098C00642000F0ABFC144B1B68013B124A136053
:10099C00114B1B68002B0DDA084B02221A600F4B0F
:1009AC001B68084A136005E000BF04E000BF02E0CA
:1009BC0000BF00E000BF00BF80BD00BF8C00002066
:1009CC00000801407C000020E8000020040000200A
:1009DC00780000200800002080000020000000208B
:1009EC0080B483B000AF0023FB710EE0FB790B4A9F
:1009FC000121D154FB790A4A0121D154FB79094ACE
:100A0C000121D154FB790133FB71FB79022BEDD918
:100A1C0000BF00BF0C37BD4680BC704750000020A3
:100A2C00540000204C00002090B583B000AF03466A
:100A3C00FB71FA79FB792E49895C2E4AD154FB79EA
:100A4C00002B09D1FC7902212B4801F025F8034633
:100A5C001A46274B1A5515E0FB79012B09D1FC7965
:100A6C000421254801F018F803461A46204B1A5564
:100A7C0008E0FC790821204801F00EF803461A46DC
:100A8C001B4B1A55FB791A4AD25CFB791949CB5C82
:100A9C009A4228D1FA79FB791549895C174AD154C5
:100AAC00FB79134AD35C002B14D1FB79144A32F82E
:100ABC001330632B09D8FB79114A32F81320013219
:100ACC0091B20F4A22F813100DE0FB790D4A012167
:100ADC00D15408E0FB790A4A002122F81310FB7963
:100AEC00084A0021D15400BF0C37BD4690BD00BF51
:100AFC005000002054000020000801404C00002051
:100B0C005C0000205800002080B483B000AF034686
:100B1C00FB71FB79022B01D9002307E0FB79064A14
:100B2C00D35C002B0CBF01230023DBB218460C371F
:100B3C00BD4680BC704700BF4C00002080B483B021
:100B4C0000AF0346FB71FB79022B01D9002307E0B0
:100B5C00FB79064AD35C012B0CBF01230023DBB2CB
:100B6C0018460C37BD4680BC704700BF58000020AB
:100B7C0080B500AF00F0A6FC00F02EF800F0B4F841
:100B8C0000F066F8114801F0FBFBFFF729FF02218A
:100B9C00192000F0A3FBFFF7D3FA0D4B9B68012B38
:100BAC00F9D10221192000F099FB0A4B1B685A1C41
:100BBC0008490A60184600F00DFB064B1B68032B16
:100BCC00E9DD044B00221A60E5E700BF900000202D
:100BDC00E80000203800002080B590B000AF07F18D
:100BEC00180328220021184601F07AFF3B1D002231
:100BFC001A605A609A60DA601A610223BB610123A1
:100C0C00BB621023FB6200237B6307F118031846B9
:100C1C0000F08AFF0346002B01D000F0E7F80F2309
:100C2C007B600023BB600023FB6000233B6100233F
:100C3C007B613B1D0021184601F0F6F90346002BA1
:100C4C0001D000F0D3F800BF4037BD4680BD000096
:100C5C0080B586B000AF07F1080300221A605A6015
:100C6C009A60DA603B4600221A605A601D4B4FF0C6
:100C7C0080421A601B4B41F63F725A60194B00229E
:100C8C009A60184B0922DA60164B00221A61154B38
:100C9C0000229A61134801F023FB0346002B01D07C
:100CAC0000F0A4F84FF48053BB6007F10803194619
:100CBC000C4801F0A1FC0346002B01D000F096F883
:100CCC0000233B6000237B603B461946054801F03E
:100CDC0079FE0346002B01D000F088F800BF1837CE
:100CEC00BD4680BD9000002080B586B000AF07F1F6
:100CFC00080300221A605A609A60DA60284B9B69DC
:100D0C00274A43F004039361254B9B6903F00403CA
:100D1C007B607B68224B9B69214A43F008039361FB
:100D2C001F4B9B6903F008033B603B6800224FF4A8
:100D3C007C711C4800F0C7FE002240F2FF711A487B
:100D4C0000F0C1FE0E23BB600023FB6001233B615E
:100D5C0007F108031946134800F024FD4FF47C7387
:100D6C00BB600123FB6000233B6102237B6107F125
:100D7C00080319460B4800F015FD40F2FF73BB60E9
:100D8C000123FB6000233B6102237B6107F1080315
:100D9C001946054800F006FD00BF1837BD4680BD5A
:100DAC000010024000080140000C014080B582B0E8
:100DBC0000AF7860002000F0A9FA012000F0A6FA3C
:100DCC00022000F0A3FA032000F0A0FA042000F0A7
:100DDC009DFA0020FFF728FE0120FFF725FE0220D8
:100DEC00FFF722FE00BF0837BD4680BD80B400AFC0
:100DFC0072B600BFFEE7000080B582B000AF78602D
:100E0C007B68092B00F29E8101A252F823F000BFEF
:100E1C00450E0008930E0008E10E00082F0F000885
:100E2C007D0F0008CB0F0008191000086710000890
:100E3C00B51000080311000800221021C44800F06E
:100E4C0042FE00222021C24800F03DFE002240213B
:100E5C00BF4800F038FE00228021BD4800F033FE70
:100E6C0000224FF48071BA4800F02DFE00224FF49E
:100E7C000071B74800F027FE01224FF48061B4489E
:100E8C0000F021FE5FE101221021B14800F01BFEB1
:100E9C0000222021AE4800F016FE00224021AC4872
:100EAC0000F011FE01228021A94800F00CFE012265
:100EBC004FF48071A64800F006FE01224FF4007139
:100ECC00A34800F000FE01224FF48061A04800F01E
:100EDC00FAFD38E1002210219D4800F0F4FD0022BB
:100EEC0020219B4800F0EFFD01224021984800F0A2
:100EFC00EAFD00228021964800F0E5FD00224FF427
:100F0C008071934800F0DFFD01224FF4007190488E
:100F1C0000F0D9FD00224FF480618D4800F0D3FD24
:100F2C0011E1002210218A4800F0CDFD0022202181
:100F3C00874800F0C8FD00224021854800F0C3FD21
:100F4C0000228021824800F0BEFD01224FF4807106
:100F5C007F4800F0B8FD01224FF400717C4800F08E
:100F6C00B2FD00224FF48061794800F0ACFDEAE05C
:100F7C0001221021764800F0A6FD002220217448A1
:100F8C0000F0A1FD00224021714800F09CFD0122DF
:100F9C0080216F4800F097FD01224FF480716C485E
:100FAC0000F091FD00224FF40071694800F08BFDB8
:100FBC0000224FF48061664800F085FDC3E00022FA
:100FCC001021634800F07FFD01222021604800F0D1
:100FDC007AFD002240215E4800F075FD0022802140
:100FEC005B4800F070FD01224FF48071584800F00E
:100FFC006AFD00224FF40071554800F064FD002298
:10100C004FF48061524800F05EFD9CE000221021FC
:10101C004F4800F058FD012220214D4800F053FDAF
:10102C00002240214A4800F04EFD00228021484811
:10103C0000F049FD00224FF48071454800F043FD5B
:10104C0000224FF40071424800F03DFD00224FF4A5
:10105C0080613F4800F037FD75E0002210213C48CC
:10106C0000F031FD00222021394800F02CFD002237
:10107C004021374800F027FD01228021344800F040
:10108C0022FD01224FF48071314800F01CFD012239
:10109C004FF400712E4800F016FD01224FF48061D0
:1010AC002B4800F010FD4EE000221021284800F0E3
:1010BC000AFD00222021264800F005FD00224021D7
:1010CC00234800F000FD00228021214800F0FBFCA9
:1010DC0000224FF480711E4800F0F5FC00224FF402
:1010EC0000711B4800F0EFFC00224FF4806118489F
:1010FC0000F0E9FC27E000221021154800F0E3FC89
:10110C0000222021124800F0DEFC00224021104871
:10111C0000F0D9FC002280210D4800F0D4FC012203
:10112C004FF480710A4800F0CEFC00224FF400719D
:10113C00074800F0C8FC00224FF48061044800F01E
:10114C00C2FC00E000BF00BF0837BD4680BD00BF39
:10115C00000C014080B483B000AF786039603B680C
:10116C00012B17D17B68194A82FB03129210DB17F3
:10117C00D31A174A13607968144B83FB01239A1016
:10118C00CB17D21A13469B0013445B00CA1A104BA0
:10119C005A6016E07B680D4A82FB03129210DB1733
:1011AC00D31A0B4A93607968084B83FB01239A107E
:1011BC00CB17D21A13469B0013445B00CA1A044B7C
:1011CC00DA6000BF0C37BD4680BC70476766666648
:1011DC00D800002080B582B000AF78607B68032B0C
:1011EC0072D801A252F823F0051200083912000837
:1011FC006D120008A112000800220121354800F0F0
:10120C0062FC01220221334800F05DFC0122042122
:10121C00304800F058FC012208212E4800F053FC05
:10122C002D4B1B681846FFF7E7FD4EE0012201210C
:10123C00284800F048FC00220221264800F043FC1C
:10124C0001220421234800F03EFC01220821214800
:10125C0000F039FC204B5B681846FFF7CDFD34E0FD
:10126C00012201211B4800F02EFC01220221194809
:10127C0000F029FC00220421164800F024FC012275
:10128C000821144800F01FFC134B9B681846FFF70D
:10129C00B3FD1AE0012201210E4800F014FC0122DA
:1012AC0002210C4800F00FFC01220421094800F037
:1012BC000AFC00220821074800F005FC064BDB68FD
:1012CC001846FFF799FD00E000BF00BF0837BD4688
:1012DC0080BD00BF000C0140D800002080B483B05A
:1012EC0000AF78603960074A3B68002142F8231050
:1012FC0005493B687A6841F8232000BF0C37BD468E
:10130C0080BC7047E80000207802002080B483B0D5
:10131C0000AF78600F4A7B6852F82330002B13DD46
:10132C000C4A7B6852F823305A1E0A497B6841F8F4
:10133C002320084A7B6852F82330002B04DC064A31
:10134C007B68012142F8231000BF0C37BD4680BCDE
:10135C00704700BF78020020E800002080B485B000
:10136C0000AF154B9B69144A43F001039361124B78
:10137C009B6903F00103BB60BB680F4BDB690E4A32
:10138C0043F08053D3610C4BDB6903F080537B60DB
:10139C007B680A4B5B68FB60FB6823F0E063FB60D7
:1013AC00FB6843F08063FB60044AFB68536000BF3A
:1013BC001437BD4680BC704700100240000001404D
:1013CC0080B584B000AF78607B681B68B3F1804F48
:1013DC0013D10C4BDB690B4A43F00103D361094B6E
:1013EC00DB6903F00103FB60FB68002200211C2079
:1013FC0000F0A1F91C2000F0BAF900BF1037BD466F
:10140C0080BD00BF0010024080B400AFFEE780B486
:10141C0000AFFEE780B400AFFEE780B400AFFEE79C
:10142C0080B400AFFEE780B400AF00BFBD4680BC07
:10143C00704780B400AF00BFBD4680BC704780B41D
:10144C0000AF00BFBD4680BC704780B500AF00F058
:10145C007FF800BF80BD000080B500AF024800F0EF
:10146C00DBFF00BF80BD00BF9000002080B400AF48
:10147C0000BFBD4680BC7047FFF7F8FF0B480C4916
:10148C000C4A002302E0D458C4500433C4188C42D4
:10149C00F9D3094A094C002301E013600432A2423B
:1014AC00FBD301F0F9FAFFF763FB70470000002053
:1014BC001C000020402B00081C0000200C04002005
:1014CC00FEE7000080B500AF084B1B68074A43F0ED
:1014DC0010031360032000F023F90F2000F008F82C
:1014EC00FFF73CFF0023184680BD00BF00200240E0
:1014FC0080B582B000AF7860124B1A68124B1B7823
:10150C0019464FF47A73B3FBF1F3B2FBF3F31846BD
:10151C0000F03BF90346002B01D001230EE07B6861
:10152C000F2B0AD8002279684FF0FF3000F003F936
:10153C00064A7B681360002300E001231846083735
:10154C00BD4680BD100000201800002014000020B3
:10155C0080B400AF054B1B781A46054B1B6813442F
:10156C00034A136000BFBD4680BC704718000020C2
:10157C000804002080B400AF024B1B681846BD461F
:10158C0080BC70470804002080B485B000AF786040
:10159C007B6803F00703FB600C4BDB68BB60BA682D
:1015AC004FF6FF031340BB60FB681A02BB68134382
:1015BC0043F0BF6343F40033BB60044ABB68D360A1
:1015CC0000BF1437BD4680BC704700BF00ED00E083
:1015DC0080B400AF044BDB681B0A03F0070318460A
:1015EC00BD4680BC704700BF00ED00E080B483B006
:1015FC0000AF0346FB7197F90730002B0BDBFB792F
:10160C0003F01F02064997F907305B09012000FA25
:10161C0002F241F8232000BF0C37BD4680BC704756
:10162C0000E100E080B483B000AF03463960FB7189
:10163C0097F90730002B0ADB3B68DAB20C4997F9B3
:10164C0007301201D2B20B4483F800230AE03B6846
:10165C00DAB20849FB7903F00F03043B1201D2B252
:10166C000B441A7600BF0C37BD4680BC704700BFD8
:10167C0000E100E000ED00E080B489B000AFF8605C
:10168C00B9607A60FB6803F00703FB61FB69C3F187
:10169C000703042B28BF0423BB61FB690433062B0F
:1016AC0002D9FB69033B00E000237B614FF0FF3262
:1016BC00BB6902FA03F3DA43BB681A407B699A40B0
:1016CC004FF0FF317B6901FA03F3D9437B680B4080
:1016DC00134318462437BD4680BC704780B582B092
:1016EC0000AF78607B68013BB3F1807F01D30123AD
:1016FC000FE00A4A7B68013B53600F214FF0FF302B
:10170C00FFF790FF054B00229A60044B07221A60EA
:10171C00002318460837BD4680BD00BF10E000E02E
:10172C0080B582B000AF78607868FFF72DFF00BFFE
:10173C000837BD4680BD80B586B000AF0346B960A2
:10174C007A60FB7300237B61FFF742FF78617A6854
:10175C00B9687869FFF790FF024697F90F30114688
:10176C001846FFF75FFF00BF1837BD4680BD80B538
:10177C0082B000AF0346FB7197F907301846FFF7AC
:10178C0035FF00BF0837BD4680BD80B582B000AFC5
:10179C0078607868FFF7A2FF034618460837BD4605
:1017AC0080BD000080B48BB000AF7860396000233E
:1017BC007B6200233B6248E101227B6A02FA03F35D
:1017CC00FB613B681B68FA691340BB61BA69FB6932
:1017DC009A4240F037813B685B68A34A93425ED0E3
:1017EC00A14A934275D8A14A934258D09F4A93423A
:1017FC006FD89F4A934252D09D4A934269D89D4AD2
:10180C0093424CD09B4A934263D89B4A934246D016
:10181C00994A93425DD8122B2AD8122B59D801A27F
:10182C0052F823F0AB180008851800089718000828
:10183C00D9180008DF180008DF180008DF180008A6
:10184C00DF180008DF180008DF180008DF18000890
:10185C00DF180008DF180008DF180008DF18000880
:10186C00DF180008DF1800088D180008A118000800
:10187C00824A934213D02CE03B68DB683B6229E040
:10188C003B68DB6804333B6224E03B68DB6808336D
:10189C003B621FE03B68DB680C333B621AE03B6841
:1018AC009B68002B02D104233B6213E03B689B68CE
:1018BC00012B05D108233B627B68FA691A6109E0A8
:1018CC0008233B627B68FA695A6103E000233B62A0
:1018DC0000E000BFBB69FF2B01D87B6801E07B688F
:1018EC0004337B61BB69FF2B02D87B6A9B0002E04F
:1018FC007B6A083B9B003B617B691A680F213B6943
:10190C0001FA03F3DB431A40396A3B6901FA03F32A
:10191C001A437B691A603B685B6803F08053002BA9
:10192C0000F09080564B9B69554A43F0010393613C
:10193C00534B9B6903F00103BB60BB68514A7B6A44
:10194C009B08023352F82330FB607B6A03F00303DD
:10195C009B000F2202FA03F3DB43FA681340FB608F
:10196C007B68494A93420DD07B68484A934207D022
:10197C007B68474A934201D1022304E0032302E02F
:10198C00012300E000237A6A02F0030292009340E4
:10199C00FA681343FB603B497B6A9B080233FA6885
:1019AC0041F823203B685B6803F48013002B06D0BE
:1019BC00384B9A683749BB6913438B6006E0354B4B
:1019CC009A68BB69DB43334913408B603B685B68A7
:1019DC0003F40013002B06D02E4BDA682D49BB699B
:1019EC001343CB6006E02B4BDA68BB69DB43294918
:1019FC001340CB603B685B6803F40033002B06D0CC
:101A0C00244B5A682349BB6913434B6006E0214BB6
:101A1C005A68BB69DB431F4913404B603B685B68EA
:101A2C0003F48033002B06D01A4B1A681949BB6992
:101A3C0013430B6006E0174B1A68BB69DB4315496F
:101A4C0013400B607B6A01337B623B681A687B6ACC
:101A5C0022FA03F3002B7FF4AFAE00BF00BF2C378C
:101A6C00BD4680BC704700BF000032100000311032
:101A7C0000002210000021100000121000001110B4
:101A8C00001002400000014000080140000C014021
:101A9C00001001400004014080B485B000AF7860B4
:101AAC000B467B807B689A687B881340002B02D0A6
:101ABC000123FB7301E00023FB73FB7B18461437F7
:101ACC00BD4680BC704780B483B000AF78600B46D5
:101ADC007B8013467B707B78002B03D07A887B68E5
:101AEC001A6103E07B881A047B681A6100BF0C370B
:101AFC00BD4680BC704780B485B000AF78600B46A3
:101B0C007B807B68DB68FB607A88FB6813401A0477
:101B1C00FB68D9437B880B401A437B681A6100BF72
:101B2C001437BD4680BC704780B586B000AF786076
:101B3C007B68002B01D101236CE27B681B6803F0EE
:101B4C000103002B00F08780924B5B6803F00C03C1
:101B5C00042B0CD08F4B5B6803F00C03082B12D1B9
:101B6C008C4B5B6803F48033B3F5803F0BD1894B0E
:101B7C001B6803F40033002B6CD07B685B68002B74
:101B8C0068D1012346E27B685B68B3F5803F06D1E0
:101B9C00804B1B687F4A43F4803313602EE07B68D4
:101BAC005B68002B0CD17B4B1B687A4A23F4803387
:101BBC001360784B1B68774A23F4802313601DE075
:101BCC007B685B68B3F5A02F0CD1724B1B68714A14
:101BDC0043F4802313606F4B1B686E4A43F48033CD
:101BEC0013600BE06B4B1B686A4A23F48033136061
:101BFC00684B1B68674A23F4802313607B685B681F
:101C0C00002B13D0FFF7B6FC386108E0FFF7B2FCED
:101C1C0002463B69D31A642B01D90323FAE15D4BCD
:101C2C001B6803F40033002BF0D014E0FFF7A2FC88
:101C3C00386108E0FFF79EFC02463B69D31A642B1F
:101C4C0001D90323E6E1534B1B6803F40033002B4B
:101C5C00F0D100E000BF7B681B6803F00203002B8F
:101C6C0063D04C4B5B6803F00C03002B0BD0494B3F
:101C7C005B6803F00C03082B1CD1464B5B6803F428
:101C8C008033002B16D1434B1B6803F00203002B4F
:101C9C0005D07B681B69012B01D00123BAE13D4BB8
:101CAC001B6823F0F8027B685B69DB00394913433E
:101CBC000B603AE07B681B69002B20D0364B01226D
:101CCC001A60FFF757FC386108E0FFF753FC024637
:101CDC003B69D31A022B01D903239BE12D4B1B68C3
:101CEC0003F00203002BF0D02A4B1B6823F0F80200
:101CFC007B685B69DB00274913430B6015E0264BBF
:101D0C0000221A60FFF736FC386108E0FFF732FC5E
:101D1C0002463B69D31A022B01D903237AE11D4BEE
:101D2C001B6803F00203002BF0D17B681B6803F0E7
:101D3C000803002B3AD07B689B69002B19D0174BFA
:101D4C0001221A60FFF716FC386108E0FFF712FC5D
:101D5C0002463B69D31A022B01D903235AE10D4BDE
:101D6C005B6A03F00203002BF0D0012000F09AFA1A
:101D7C001CE00A4B00221A60FFF7FCFB38610FE0F5
:101D8C00FFF7F8FB02463B69D31A022B08D9032351
:101D9C0040E100BF00100240000042428004424279
:101DAC009E4B5B6A03F00203002BE9D17B681B6836
:101DBC0003F00403002B00F0A6800023FB75974B67
:101DCC00DB6903F08053002B0DD1944BDB69934AF4
:101DDC0043F08053D361914BDB6903F08053BB60BC
:101DEC00BB680123FB758E4B1B6803F48073002BBF
:101DFC0018D18B4B1B688A4A43F480731360FFF72E
:101E0C00B9FB386108E0FFF7B5FB02463B69D31A12
:101E1C00642B01D90323FDE0814B1B6803F4807311
:101E2C00002BF0D07B68DB68012B06D17B4B1B6A47
:101E3C007A4A43F0010313622DE07B68DB68002BC8
:101E4C000CD1764B1B6A754A23F001031362734B5A
:101E5C001B6A724A23F0040313621CE07B68DB6884
:101E6C00052B0CD16D4B1B6A6C4A43F004031362B7
:101E7C006A4B1B6A694A43F0010313620BE0674B20
:101E8C001B6A664A23F001031362644B1B6A634AA4
:101E9C0023F0040313627B68DB68002B15D0FFF77B
:101EAC0069FB38610AE0FFF765FB02463B69D31A10
:101EBC0041F28832934201D90323ABE0574B1B6AA2
:101ECC0003F00203002BEED014E0FFF753FB386154
:101EDC000AE0FFF74FFB02463B69D31A41F2883206
:101EEC00934201D9032395E04C4B1B6A03F0020388
:101EFC00002BEED1FB7D012B05D1484BDB69474A0A
:101F0C0023F08053D3617B68DB69002B00F0818068
:101F1C00424B5B6803F00C03082B61D07B68DB69D8
:101F2C00022B46D13F4B00221A60FFF723FB38618E
:101F3C0008E0FFF71FFB02463B69D31A022B01D9BD
:101F4C00032367E0354B1B6803F00073002BF0D1C3
:101F5C007B681B6AB3F5803F08D1304B5B6823F478
:101F6C0000327B689B682D4913434B602B4B5B689D
:101F7C0023F474127B68196A7B685B6A0B432749EC
:101F8C0013434B60274B01221A60FFF7F3FA3861B9
:101F9C0008E0FFF7EFFA02463B69D31A022B01D98E
:101FAC00032337E01D4B1B6803F00073002BF0D0AC
:101FBC002FE01C4B00221A60FFF7DCFA386108E0B6
:101FCC00FFF7D8FA02463B69D31A022B01D9032337
:101FDC0020E0124B1B6803F00073002BF0D118E0CB
:101FEC007B68DB69012B01D1012313E00B4B5B6890
:101FFC00FB60FB6803F480327B681B6A9A4206D153
:10200C00FB6803F470127B685B6A9A4201D001236F
:10201C0000E0002318461837BD4680BD0010024072
:10202C00007000406000424280B584B000AF786020
:10203C0039607B68002B01D10123D0E06A4B1B680F
:10204C0003F007033A689A4210D9674B1B6823F0D8
:10205C00070265493B6813430B60634B1B6803F035
:10206C0007033A689A4201D00123B8E07B681B68E9
:10207C0003F00203002B20D07B681B6803F00403E1
:10208C00002B05D0594B5B68584A43F4E06353600E
:10209C007B681B6803F00803002B05D0534B5B686F
:1020AC00524A43F460535360504B5B6823F0F00288
:1020BC007B689B684D4913434B607B681B6803F03E
:1020CC000103002B40D07B685B68012B07D1474B89
:1020DC001B6803F40033002B15D101237FE07B68D0
:1020EC005B68022B07D1414B1B6803F00073002B7C
:1020FC0009D1012373E03D4B1B6803F00203002B55
:10210C0001D101236BE0394B5B6823F003027B6840
:10211C005B68364913434B60FFF72CFAF8600AE012
:10212C00FFF728FA0246FB68D31A41F28832934231
:10213C0001D9032353E02D4B5B6803F00C027B6841
:10214C005B689B009A42EBD1274B1B6803F007039B
:10215C003A689A4210D2244B1B6823F0070222499A
:10216C003B6813430B60204B1B6803F007033A6872
:10217C009A4201D0012332E07B681B6803F0040310
:10218C00002B08D0194B5B6823F4E0627B68DB689A
:10219C00164913434B607B681B6803F00803002B44
:1021AC0009D0124B5B6823F460527B681B69DB001F
:1021BC000E4913434B6000F021F802460B4B5B6851
:1021CC001B0903F00F030A49CB5C22FA03F3094AFB
:1021DC001360094B1B681846FFF78AF90023184651
:1021EC001037BD4680BD00BF0020024000100240E9
:1021FC00142B0008100000201400002080B487B0BD
:10220C0000AF0023FB600023BB6000237B61002335
:10221C007B6000233B611E4B5B68FB60FB6803F03B
:10222C000C03042B02D0082B03D027E0194B3B6185
:10223C0027E0FB689B0C03F00F03174AD35C7B6011
:10224C00FB6803F48033002B10D0114B5B685B0CE4
:10225C0003F00103114AD35CBB607B680D4A02FB9F
:10226C0003F2BB68B2FBF3F37B6104E07B680C4ABE
:10227C0002FB03F37B617B693B6102E0054B3B6135
:10228C0000BF3B6918461C37BD4680BC704700BF79
:10229C000010024000127A00242B0008342B000896
:1022AC0000093D0080B485B000AF78600A4B1B6814
:1022BC000A4AA2FB03235B0A7A6802FB03F3FB6066
:1022CC0000BFFB685A1EFA60002BF9D100BF00BF9B
:1022DC001437BD4680BC704710000020D34D6210EF
:1022EC0080B582B000AF78607B68002B01D10123F0
:1022FC0041E07B6893F83D30DBB2002B06D17B6864
:10230C00002283F83C207868FFF75AF87B68022299
:10231C0083F83D207B681A687B68043319461046A5
:10232C0000F056FA7B68012283F846207B68012274
:10233C0083F83E207B68012283F83F207B680122D2
:10234C0083F840207B68012283F841207B680122BE
:10235C0083F842207B68012283F843207B680122AA
:10236C0083F844207B68012283F845207B68012296
:10237C0083F83D20002318460837BD4680BD000079
:10238C0080B485B000AF78607B6893F83D30DBB2E9
:10239C00012B01D0012335E07B68022283F83D201C
:1023AC007B681B68DA687B681B6842F00102DA60A4
:1023BC007B681B68164A934209D07B681B68B3F193
:1023CC00804F04D07B681B68124A934211D17B6802
:1023DC001B689B6803F00703FB60FB68062B10D09F
:1023EC007B681B681A687B681B6842F001021A60E4
:1023FC0007E07B681B681A687B681B6842F0010267
:10240C001A60002318461437BD4680BC704700BFC5
:10241C00002C01400004004080B584B000AF78600F
:10242C007B681B68DB68FB607B681B681B69BB6097
:10243C00BB6803F00203002B20D0FB6803F00203FF
:10244C00002B1BD07B681B686FF002021A617B6843
:10245C0001221A777B681B689B6903F00303002B2E
:10246C0003D0786800F098F905E0786800F08BF9F3
:10247C00786800F09AF97B6800221A77BB6803F041
:10248C000403002B20D0FB6803F00403002B1BD0AB
:10249C007B681B686FF004021A617B6802221A7752
:1024AC007B681B689B6903F44073002B03D078682E
:1024BC0000F072F905E0786800F065F9786800F0D2
:1024CC0074F97B6800221A77BB6803F00803002BB1
:1024DC0020D0FB6803F00803002B1BD07B681B6823
:1024EC006FF008021A617B6804221A777B681B68FC
:1024FC00DB6903F00303002B03D0786800F04CF980
:10250C0005E0786800F03FF9786800F04EF97B68D8
:10251C0000221A77BB6803F01003002B20D0FB6855
:10252C0003F01003002B1BD07B681B686FF01002AC
:10253C001A617B6808221A777B681B68DB6903F4D5
:10254C004073002B03D0786800F026F905E078681A
:10255C0000F019F9786800F028F97B6800221A77E6
:10256C00BB6803F00103002B0CD0FB6803F00103E4
:10257C00002B07D07B681B686FF001021A6178682A
:10258C00FEF714FCBB6803F08003002B0CD0FB6837
:10259C0003F08003002B07D07B681B686FF0800270
:1025AC001A61786800F06FFABB6803F04003002BE7
:1025BC000CD0FB6803F04003002B07D07B681B6832
:1025CC006FF040021A61786800F0F8F8BB6803F00D
:1025DC002003002B0CD0FB6803F02003002B07D04A
:1025EC007B681B686FF020021A61786800F042FA71
:1025FC0000BF1037BD4680BD80B584B000AF786099
:10260C0039600023FB737B6893F83C30012B01D1BC
:10261C000223B4E07B68012283F83C207B68022211
:10262C0083F83D207B681B689B68BB60BB6823F00C
:10263C007703BB60BB6823F47F43BB607B681B687C
:10264C00BA689A603B681B68B3F5005F3ED0B3F57F
:10265C00005F00F28780B3F5805F00F08680B3F5F1
:10266C00805F7FD8702B1AD0702B7BD8602B50D00A
:10267C00602B77D8502B3CD0502B73D8402B58D094
:10268C00402B6FD8302B64D0302B6BD8202B60D0E4
:10269C00202B67D8002B5CD0102B5AD062E07B68C3
:1026AC0018683B6899683B685A683B68DB6800F0BF
:1026BC006AF97B681B689B68BB60BB6843F0770357
:1026CC00BB607B681B68BA689A604FE07B681868CF
:1026DC003B6899683B685A683B68DB6800F053F9C3
:1026EC007B681B689A687B681B6842F480429A601E
:1026FC003CE07B6818683B6859683B68DB681A46A5
:10270C0000F0CAF87B681B685021184600F021F9CC
:10271C002CE07B6818683B6859683B68DB681A4694
:10272C0000F0E8F87B681B686021184600F011F98E
:10273C001CE07B6818683B6859683B68DB681A4684
:10274C0000F0AAF87B681B684021184600F001F9DC
:10275C000CE07B681A683B681B681946104600F051
:10276C00F8F803E00123FB7300E000BF7B68012253
:10277C0083F83D207B68002283F83C20FB7B1846C5
:10278C001037BD4680BD80B483B000AF786000BF09
:10279C000C37BD4680BC704780B483B000AF786006
:1027AC0000BF0C37BD4680BC704780B483B000AF0F
:1027BC00786000BF0C37BD4680BC704780B483B0D6
:1027CC0000AF786000BF0C37BD4680BC704700007E
:1027DC0080B485B000AF786039607B681B68FB60A3
:1027EC007B682B4A934207D07B68B3F1804F03D0B0
:1027FC007B68284A934208D1FB6823F07003FB6086
:10280C003B685B68FA681343FB607B68204A934221
:10281C0007D07B68B3F1804F03D07B681D4A93428D
:10282C0008D1FB6823F44073FB603B68DB68FA68F3
:10283C001343FB60FB6823F080023B685B69134326
:10284C00FB607B68FA681A603B689A687B68DA629E
:10285C003B681A687B689A627B680D4A934203D185
:10286C003B681A697B681A637B6801225A617B6832
:10287C001B6903F00103002B05D07B681B6923F057
:10288C0001027B681A6100BF1437BD4680BC7047DB
:10289C00002C01400004004080B487B000AFF86009
:1028AC00B9607A60FB681B6A7B61FB681B6A23F06A
:1028BC000102FB681A62FB689B693B613B6923F070
:1028CC00F0033B617B681B013A6913433B617B69F5
:1028DC0023F00A037B617A69BB6813437B61FB6855
:1028EC003A699A61FB687A691A6200BF1C37BD4667
:1028FC0080BC704780B487B000AFF860B9607A6074
:10290C00FB681B6A7B61FB681B6A23F01002FB6887
:10291C001A62FB689B693B613B6923F470433B6122
:10292C007B681B033A6913433B617B6923F0A0036B
:10293C007B61BB681B017A6913437B61FB683A6955
:10294C009A61FB687A691A6200BF1C37BD4680BC6D
:10295C00704780B485B000AF786039607B689B6845
:10296C00FB60FB6823F07003FB603A68FB68134361
:10297C0043F00703FB607B68FA689A6000BF14376A
:10298C00BD4680BC704780B487B000AFF860B960BA
:10299C007A603B60FB689B687B617B6923F47F43B7
:1029AC007B613B681A027B681A43BB6813437A69E4
:1029BC0013437B61FB687A699A6000BF1C37BD4684
:1029CC0080BC704780B485B000AF786039607B689C
:1029DC0093F83C30012B01D1022341E07B680122AA
:1029EC0083F83C207B68022283F83D207B681B68BF
:1029FC005B68FB607B681B689B68BB60FB6823F0B3
:102A0C007003FB603B681B68FA681343FB607B68D0
:102A1C001B68FA685A607B681B68144A934209D099
:102A2C007B681B68B3F1804F04D07B681B68104A2D
:102A3C0093420CD1BB6823F08003BB603B685B689E
:102A4C00BA681343BB607B681B68BA689A607B6882
:102A5C00012283F83D207B68002283F83C20002370
:102A6C0018461437BD4680BC704700BF002C01408F
:102A7C000004004080B483B000AF786000BF0C3716
:102A8C00BD4680BC704780B483B000AF786000BF97
:102A9C000C37BD4680BC704770B500260C4D0D4CF4
:102AAC00641BA410A64209D100F022F800260A4D9E
:102ABC000A4C641BA410A64205D170BD55F8043B0A
:102ACC0098470136EEE755F8043B98470136F2E794
:102ADC00382B0008382B0008382B00083C2B00083A
:102AEC0003460244934200D1704703F8011BF9E7F7
:102AFC00F8B500BFF8BC08BC9E467047F8B500BFDF
:082B0C00F8BC08BC9E467047AE
:102B14000000000000000000010203040607080989
:102B240002030405060708090A0B0C0D0E0F10100A
:042B3400010200009A
:042B3800310100085F
:042B3C000D0100087F
:102B4000040000000200000001000000010000007D
:0C2B500000127A001000000001000000DC
:040000050800148556
:00000001FF
